:1000000009C016C037C014C013C012C011C010C040
:100010000FC02FC011241FBECFE9CDBF20E0A0E646
:10002000B0E001C01D92A636B207E1F731D044C15D
:10003000E7CF96B1906996B987B985B7877E886012
:1000400085BF20E190E080E035B7306235BF88950C
:1000500035B73F7D35BF3699FECF44B155B1840FDA
:10006000951F215089F724E0969587952A95E1F709
:10007000089518951F920F920FB60F9211241092A7
:100080006100109260000F900FBE0F901F901895A6
:1000900083E087BB84E088BB90E29BBF85BB86E0A2
:1000A00086B9339A789483E0C4DF90936300809399
:1000B0006200C12CD12C7601CA94D394C1E082E0B5
:1000C000B8DFBC018115924008F08AC090E080E062
:1000D00027E630E040E050E0B4D039E096958795CF
:1000E000779567953A95D1F76A587F4F7093650079
:1000F00060936400C1988FEC92E00197F1F700C023
:10010000000083E096DF9C01809162009091630083
:1001100067E070E085D0820F931F23E09695879566
:100120002A95E1F790936300809362002091640028
:10013000309165008217930708F4C19AC098209106
:100140006200309163008091640090916500A90184
:10015000465F5F4F8417950728F40A9628173907DA
:1001600008F4C09A80916000909161009C012F5F1B
:100170003F4F3093610020936000893B9B4008F41F
:1001800044C08091600090916100892BE9F1C19891
:1001900080916000909161008037974198F580913F
:1001A00060009091610001969093610080936000DF
:1001B0008FEC92E00197F1F700C0000083E039DF97
:1001C0008436910508F4C19AC6BB84E690E0EFE559
:1001D000F9E03197F1F700C000000197C1F7D1CFE6
:1001E000725090E080E027E630E040E050E029D017
:1001F000A70196013FD023523F4F309365002093D3
:10020000640078CFB898E1CFB89A84E690E0EFE543
:10021000F9E03197F1F700C000000197C1F74FCF27
:100220000024552704C0080E591F880F991F0097F6
:1002300029F076956795B8F37105B9F7802D952F5C
:100240000895EE27FF27AA27BB2708C0A20FB31FD8
:10025000E41FF51F220F331F441F551F96958795E6
:100260007795679598F37040A9F7009799F7BD01C6
:10027000CF010895A1E21A2EAA1BBB1BFD010DC0E0
:10028000AA1FBB1FEE1FFF1FA217B307E407F50746
:1002900020F0A21BB30BE40BF50B661F771F881F22
:1002A000991F1A9469F760957095809590959B01B8
:0C02B000AC01BD01CF010895F894FFCF10
:00000001FF
