:1000000009C016C034C014C013C012C011C010C043
:100010000FC03BC011241FBECFE9CDBF20E0A0E63A
:10002000B0E001C01D92A236B207E1F72FD0D1C0D7
:10003000E7CF349A87B985B7877E886085BF20E18E
:1000400080E090E035B7306235BF889535B73F7DA9
:1000500035BF3699FECF44B155B1840F951F21505D
:1000600089F724E0969587952A95E1F708951F92E0
:100070000F920FB60F92112410926100109260003F
:100080000F900FBE0F901F9018951895B89AB99AB7
:10009000C29AA39AA49A80E28BBFAA9A78948BE81A
:1000A00086B983E0C6DF8C0182E0C3DF67E670E0DB
:1000B000811522E0920740F47BD0E92EE694F12CE2
:1000C000E701CA58DF4F08C073D09E5CEC01CD2F0A
:1000D000DD27C695C352DF4FC1988DE091E00197AF
:1000E000F1F700C0000083E0A4DF980143E0220F95
:1000F000331F4A95E1F7A901401B510B840F951F4F
:100100008C0153E0169507955A95E1F70C171D07DA
:1001100008F4C19AC098C8010A96C817D90728F4EC
:100120002A960C171D0708F4C09A809160009091E0
:1001300061009C012F5F3F4F30936100209360006E
:100140008137974170F18091600090916100892B17
:1001500039F1C1988091600090916100803E9E428B
:10016000B8F48091600090916100019690936100D5
:10017000809360008DE091E00197F1F700C00000EE
:1001800083E057DF8436910508F4C19AB09A01C024
:10019000B89887E391E30197F1F700C00000D3CF4F
:1001A000B89A87E391E30197F1F700C000007CCF94
:1001B0000024552704C0080E591F880F991F009767
:1001C00029F076956795B8F37105B9F7802D952FCD
:0601D0000895F894FFCF32
:00000001FF
